{
  "_format": "hh-sol-artifact-1",
  "contractName": "Bank",
  "sourceName": "contracts/BankContract.sol",
  "abi": [
    {
      "inputs": [
        {
          "internalType": "address",
          "name": "_zCoinAddress",
          "type": "address"
        }
      ],
      "stateMutability": "nonpayable",
      "type": "constructor"
    },
    {
      "inputs": [],
      "name": "ZCoinContract",
      "outputs": [
        {
          "internalType": "contract ZCoin",
          "name": "",
          "type": "address"
        }
      ],
      "stateMutability": "view",
      "type": "function"
    },
    {
      "inputs": [],
      "name": "bankOwner",
      "outputs": [
        {
          "internalType": "address",
          "name": "",
          "type": "address"
        }
      ],
      "stateMutability": "view",
      "type": "function"
    },
    {
      "inputs": [
        {
          "internalType": "uint256",
          "name": "value",
          "type": "uint256"
        }
      ],
      "name": "borrowMoney",
      "outputs": [],
      "stateMutability": "nonpayable",
      "type": "function"
    },
    {
      "inputs": [
        {
          "internalType": "address",
          "name": "",
          "type": "address"
        }
      ],
      "name": "customerDebts",
      "outputs": [
        {
          "internalType": "uint256",
          "name": "",
          "type": "uint256"
        }
      ],
      "stateMutability": "view",
      "type": "function"
    },
    {
      "inputs": [
        {
          "internalType": "address",
          "name": "",
          "type": "address"
        }
      ],
      "name": "customerDeposit",
      "outputs": [
        {
          "internalType": "uint256",
          "name": "",
          "type": "uint256"
        }
      ],
      "stateMutability": "view",
      "type": "function"
    },
    {
      "inputs": [
        {
          "internalType": "uint256",
          "name": "value",
          "type": "uint256"
        }
      ],
      "name": "depositMoney",
      "outputs": [],
      "stateMutability": "nonpayable",
      "type": "function"
    },
    {
      "inputs": [],
      "name": "getCustomerDebts",
      "outputs": [
        {
          "internalType": "uint256",
          "name": "",
          "type": "uint256"
        }
      ],
      "stateMutability": "view",
      "type": "function"
    },
    {
      "inputs": [],
      "name": "getCustomerDeposit",
      "outputs": [
        {
          "internalType": "uint256",
          "name": "",
          "type": "uint256"
        }
      ],
      "stateMutability": "view",
      "type": "function"
    },
    {
      "inputs": [],
      "name": "name",
      "outputs": [
        {
          "internalType": "string",
          "name": "",
          "type": "string"
        }
      ],
      "stateMutability": "view",
      "type": "function"
    }
  ],
  "bytecode": "0x608060405234801561001057600080fd5b5060405161102b38038061102b833981810160405281019061003291906100ce565b336000806101000a81548173ffffffffffffffffffffffffffffffffffffffff021916908373ffffffffffffffffffffffffffffffffffffffff16021790555080600460006101000a81548173ffffffffffffffffffffffffffffffffffffffff021916908373ffffffffffffffffffffffffffffffffffffffff16021790555050610140565b6000815190506100c881610129565b92915050565b6000602082840312156100e057600080fd5b60006100ee848285016100b9565b91505092915050565b600061010282610109565b9050919050565b600073ffffffffffffffffffffffffffffffffffffffff82169050919050565b610132816100f7565b811461013d57600080fd5b50565b610edc8061014f6000396000f3fe608060405234801561001057600080fd5b50600436106100935760003560e01c8063ae18c52b11610066578063ae18c52b14610120578063d1962d4c1461013c578063e147aaa71461015a578063e1eaef7b14610178578063fb66a444146101a857610093565b806306fdde03146100985780636fd0d5bd146100b65780637bfb9ca5146100d4578063a8596391146100f0575b600080fd5b6100a06101c6565b6040516100ad9190610a16565b60405180910390f35b6100be610254565b6040516100cb9190610a98565b60405180910390f35b6100ee60048036038101906100e99190610796565b61029b565b005b61010a60048036038101906101059190610744565b6104e1565b6040516101179190610a98565b60405180910390f35b61013a60048036038101906101359190610796565b6104f9565b005b610144610647565b6040516101519190610a98565b60405180910390f35b61016261068e565b60405161016f9190610980565b60405180910390f35b610192600480360381019061018d9190610744565b6106b2565b60405161019f9190610a98565b60405180910390f35b6101b06106ca565b6040516101bd91906109fb565b60405180910390f35b600180546101d390610d9c565b80601f01602080910402602001604051908101604052809291908181526020018280546101ff90610d9c565b801561024c5780601f106102215761010080835404028352916020019161024c565b820191906000526020600020905b81548152906001019060200180831161022f57829003601f168201915b505050505081565b6000600260003373ffffffffffffffffffffffffffffffffffffffff1673ffffffffffffffffffffffffffffffffffffffff16815260200190815260200160002054905090565b600081116102de576040517f08c379a00000000000000000000000000000000000000000000000000000000081526004016102d590610a38565b60405180910390fd5b600460009054906101000a900473ffffffffffffffffffffffffffffffffffffffff1673ffffffffffffffffffffffffffffffffffffffff1663313ce5676040518163ffffffff1660e01b815260040160206040518083038186803b15801561034657600080fd5b505afa15801561035a573d6000803e3d6000fd5b505050506040513d601f19601f8201168201806040525081019061037e91906107bf565b600a61038a9190610b78565b6103e86103979190610c96565b81106103d8576040517f08c379a00000000000000000000000000000000000000000000000000000000081526004016103cf90610a78565b60405180910390fd5b600460009054906101000a900473ffffffffffffffffffffffffffffffffffffffff1673ffffffffffffffffffffffffffffffffffffffff1663a9059cbb33836040518363ffffffff1660e01b81526004016104359291906109d2565b602060405180830381600087803b15801561044f57600080fd5b505af1158015610463573d6000803e3d6000fd5b505050506040513d601f19601f82011682018060405250810190610487919061076d565b5080600360003373ffffffffffffffffffffffffffffffffffffffff1673ffffffffffffffffffffffffffffffffffffffff16815260200190815260200160002060008282546104d79190610acf565b9250508190555050565b60026020528060005260406000206000915090505481565b6000811161053c576040517f08c379a000000000000000000000000000000000000000000000000000000000815260040161053390610a58565b60405180910390fd5b600460009054906101000a900473ffffffffffffffffffffffffffffffffffffffff1673ffffffffffffffffffffffffffffffffffffffff166323b872dd3330846040518463ffffffff1660e01b815260040161059b9392919061099b565b602060405180830381600087803b1580156105b557600080fd5b505af11580156105c9573d6000803e3d6000fd5b505050506040513d601f19601f820116820180604052508101906105ed919061076d565b5080600260003373ffffffffffffffffffffffffffffffffffffffff1673ffffffffffffffffffffffffffffffffffffffff168152602001908152602001600020600082825461063d9190610acf565b9250508190555050565b6000600360003373ffffffffffffffffffffffffffffffffffffffff1673ffffffffffffffffffffffffffffffffffffffff16815260200190815260200160002054905090565b60008054906101000a900473ffffffffffffffffffffffffffffffffffffffff1681565b60036020528060005260406000206000915090505481565b600460009054906101000a900473ffffffffffffffffffffffffffffffffffffffff1681565b6000813590506106ff81610e4a565b92915050565b60008151905061071481610e61565b92915050565b60008135905061072981610e78565b92915050565b60008151905061073e81610e8f565b92915050565b60006020828403121561075657600080fd5b6000610764848285016106f0565b91505092915050565b60006020828403121561077f57600080fd5b600061078d84828501610705565b91505092915050565b6000602082840312156107a857600080fd5b60006107b68482850161071a565b91505092915050565b6000602082840312156107d157600080fd5b60006107df8482850161072f565b91505092915050565b6107f181610cf0565b82525050565b61080081610d45565b82525050565b600061081182610ab3565b61081b8185610abe565b935061082b818560208601610d69565b61083481610e2c565b840191505092915050565b600061084c602783610abe565b91507f596f75206e65656420746f20626f72726f7720736f6d6520616d6f756e74206f60008301527f66205a436f696e000000000000000000000000000000000000000000000000006020830152604082019050919050565b60006108b2602583610abe565b91507f596f75206e65656420746f2073656c6c206174206c6561737420736f6d65207460008301527f6f6b656e730000000000000000000000000000000000000000000000000000006020830152604082019050919050565b6000610918602883610abe565b91507f596f752063616e277420626f72726f77206d6f7265207468616e20313030302060008301527f6f66205a436f696e0000000000000000000000000000000000000000000000006020830152604082019050919050565b61097a81610d2e565b82525050565b600060208201905061099560008301846107e8565b92915050565b60006060820190506109b060008301866107e8565b6109bd60208301856107e8565b6109ca6040830184610971565b949350505050565b60006040820190506109e760008301856107e8565b6109f46020830184610971565b9392505050565b6000602082019050610a1060008301846107f7565b92915050565b60006020820190508181036000830152610a308184610806565b905092915050565b60006020820190508181036000830152610a518161083f565b9050919050565b60006020820190508181036000830152610a71816108a5565b9050919050565b60006020820190508181036000830152610a918161090b565b9050919050565b6000602082019050610aad6000830184610971565b92915050565b600081519050919050565b600082825260208201905092915050565b6000610ada82610d2e565b9150610ae583610d2e565b9250827fffffffffffffffffffffffffffffffffffffffffffffffffffffffffffffffff03821115610b1a57610b19610dce565b5b828201905092915050565b6000808291508390505b6001851115610b6f57808604811115610b4b57610b4a610dce565b5b6001851615610b5a5780820291505b8081029050610b6885610e3d565b9450610b2f565b94509492505050565b6000610b8382610d2e565b9150610b8e83610d38565b9250610bbb7fffffffffffffffffffffffffffffffffffffffffffffffffffffffffffffffff8484610bc3565b905092915050565b600082610bd35760019050610c8f565b81610be15760009050610c8f565b8160018114610bf75760028114610c0157610c30565b6001915050610c8f565b60ff841115610c1357610c12610dce565b5b8360020a915084821115610c2a57610c29610dce565b5b50610c8f565b5060208310610133831016604e8410600b8410161715610c655782820a905083811115610c6057610c5f610dce565b5b610c8f565b610c728484846001610b25565b92509050818404811115610c8957610c88610dce565b5b81810290505b9392505050565b6000610ca182610d2e565b9150610cac83610d2e565b9250817fffffffffffffffffffffffffffffffffffffffffffffffffffffffffffffffff0483118215151615610ce557610ce4610dce565b5b828202905092915050565b6000610cfb82610d0e565b9050919050565b60008115159050919050565b600073ffffffffffffffffffffffffffffffffffffffff82169050919050565b6000819050919050565b600060ff82169050919050565b6000610d5082610d57565b9050919050565b6000610d6282610d0e565b9050919050565b60005b83811015610d87578082015181840152602081019050610d6c565b83811115610d96576000848401525b50505050565b60006002820490506001821680610db457607f821691505b60208210811415610dc857610dc7610dfd565b5b50919050565b7f4e487b7100000000000000000000000000000000000000000000000000000000600052601160045260246000fd5b7f4e487b7100000000000000000000000000000000000000000000000000000000600052602260045260246000fd5b6000601f19601f8301169050919050565b60008160011c9050919050565b610e5381610cf0565b8114610e5e57600080fd5b50565b610e6a81610d02565b8114610e7557600080fd5b50565b610e8181610d2e565b8114610e8c57600080fd5b50565b610e9881610d38565b8114610ea357600080fd5b5056fea2646970667358221220f64a82e35b3238fa49e3350a4d75fec3381fc93528828270d5b32a643b39e03564736f6c63430008000033",
  "linkReferences": {},
  "deployedLinkReferences": {}
}